{
  "contractName": "IdentityVerification",
  "abi": [
    {
      "inputs": [],
      "stateMutability": "nonpayable",
      "type": "constructor"
    },
    {
      "anonymous": false,
      "inputs": [
        {
          "indexed": true,
          "internalType": "address",
          "name": "user",
          "type": "address"
        },
        {
          "indexed": false,
          "internalType": "string",
          "name": "dataHash",
          "type": "string"
        },
        {
          "indexed": false,
          "internalType": "address",
          "name": "issuer",
          "type": "address"
        }
      ],
      "name": "CredentialIssued",
      "type": "event"
    },
    {
      "anonymous": false,
      "inputs": [
        {
          "indexed": true,
          "internalType": "address",
          "name": "user",
          "type": "address"
        },
        {
          "indexed": false,
          "internalType": "string",
          "name": "dataHash",
          "type": "string"
        },
        {
          "indexed": false,
          "internalType": "address",
          "name": "issuer",
          "type": "address"
        }
      ],
      "name": "CredentialRevoked",
      "type": "event"
    },
    {
      "anonymous": false,
      "inputs": [
        {
          "indexed": true,
          "internalType": "address",
          "name": "user",
          "type": "address"
        },
        {
          "indexed": false,
          "internalType": "string",
          "name": "hashedData",
          "type": "string"
        }
      ],
      "name": "UserRegistered",
      "type": "event"
    },
    {
      "inputs": [],
      "name": "admin",
      "outputs": [
        {
          "internalType": "address",
          "name": "",
          "type": "address"
        }
      ],
      "stateMutability": "view",
      "type": "function",
      "constant": true
    },
    {
      "inputs": [
        {
          "internalType": "address",
          "name": "",
          "type": "address"
        },
        {
          "internalType": "string",
          "name": "",
          "type": "string"
        }
      ],
      "name": "credentials",
      "outputs": [
        {
          "internalType": "string",
          "name": "dataHash",
          "type": "string"
        },
        {
          "internalType": "address",
          "name": "issuer",
          "type": "address"
        },
        {
          "internalType": "bool",
          "name": "valid",
          "type": "bool"
        }
      ],
      "stateMutability": "view",
      "type": "function",
      "constant": true
    },
    {
      "inputs": [
        {
          "internalType": "address",
          "name": "",
          "type": "address"
        }
      ],
      "name": "issuers",
      "outputs": [
        {
          "internalType": "bool",
          "name": "",
          "type": "bool"
        }
      ],
      "stateMutability": "view",
      "type": "function",
      "constant": true
    },
    {
      "inputs": [
        {
          "internalType": "address",
          "name": "",
          "type": "address"
        }
      ],
      "name": "userRecords",
      "outputs": [
        {
          "internalType": "string",
          "name": "",
          "type": "string"
        }
      ],
      "stateMutability": "view",
      "type": "function",
      "constant": true
    },
    {
      "inputs": [
        {
          "internalType": "address",
          "name": "",
          "type": "address"
        }
      ],
      "name": "verifiers",
      "outputs": [
        {
          "internalType": "bool",
          "name": "",
          "type": "bool"
        }
      ],
      "stateMutability": "view",
      "type": "function",
      "constant": true
    },
    {
      "inputs": [
        {
          "internalType": "address",
          "name": "issuer",
          "type": "address"
        }
      ],
      "name": "addIssuer",
      "outputs": [],
      "stateMutability": "nonpayable",
      "type": "function"
    },
    {
      "inputs": [
        {
          "internalType": "address",
          "name": "verifier",
          "type": "address"
        }
      ],
      "name": "addVerifier",
      "outputs": [],
      "stateMutability": "nonpayable",
      "type": "function"
    },
    {
      "inputs": [
        {
          "internalType": "address",
          "name": "issuer",
          "type": "address"
        }
      ],
      "name": "removeIssuer",
      "outputs": [],
      "stateMutability": "nonpayable",
      "type": "function"
    },
    {
      "inputs": [
        {
          "internalType": "address",
          "name": "verifier",
          "type": "address"
        }
      ],
      "name": "removeVerifier",
      "outputs": [],
      "stateMutability": "nonpayable",
      "type": "function"
    },
    {
      "inputs": [
        {
          "internalType": "address",
          "name": "newAdmin",
          "type": "address"
        }
      ],
      "name": "transferAdmin",
      "outputs": [],
      "stateMutability": "nonpayable",
      "type": "function"
    },
    {
      "inputs": [
        {
          "internalType": "string",
          "name": "hashedData",
          "type": "string"
        }
      ],
      "name": "register",
      "outputs": [],
      "stateMutability": "nonpayable",
      "type": "function"
    },
    {
      "inputs": [
        {
          "internalType": "address",
          "name": "user",
          "type": "address"
        }
      ],
      "name": "isUserRegistered",
      "outputs": [
        {
          "internalType": "bool",
          "name": "",
          "type": "bool"
        }
      ],
      "stateMutability": "view",
      "type": "function",
      "constant": true
    },
    {
      "inputs": [
        {
          "internalType": "address",
          "name": "user",
          "type": "address"
        },
        {
          "internalType": "string",
          "name": "dataHash",
          "type": "string"
        }
      ],
      "name": "issueCredential",
      "outputs": [],
      "stateMutability": "nonpayable",
      "type": "function"
    },
    {
      "inputs": [
        {
          "internalType": "address",
          "name": "user",
          "type": "address"
        },
        {
          "internalType": "string",
          "name": "dataHash",
          "type": "string"
        }
      ],
      "name": "revokeCredential",
      "outputs": [],
      "stateMutability": "nonpayable",
      "type": "function"
    },
    {
      "inputs": [
        {
          "internalType": "address",
          "name": "user",
          "type": "address"
        },
        {
          "internalType": "string",
          "name": "dataHash",
          "type": "string"
        }
      ],
      "name": "verifyCredential",
      "outputs": [
        {
          "internalType": "bool",
          "name": "",
          "type": "bool"
        }
      ],
      "stateMutability": "view",
      "type": "function",
      "constant": true
    },
    {
      "inputs": [
        {
          "internalType": "address",
          "name": "user",
          "type": "address"
        },
        {
          "internalType": "string",
          "name": "dataHash",
          "type": "string"
        }
      ],
      "name": "getCredential",
      "outputs": [
        {
          "components": [
            {
              "internalType": "string",
              "name": "dataHash",
              "type": "string"
            },
            {
              "internalType": "address",
              "name": "issuer",
              "type": "address"
            },
            {
              "internalType": "bool",
              "name": "valid",
              "type": "bool"
            }
          ],
          "internalType": "struct IdentityVerification.Credential",
          "name": "",
          "type": "tuple"
        }
      ],
      "stateMutability": "view",
      "type": "function",
      "constant": true
    }
  ],
  "bytecode": "0x608060405234801561001057600080fd5b5033600360006101000a81548173ffffffffffffffffffffffffffffffffffffffff021916908373ffffffffffffffffffffffffffffffffffffffff160217905550612142806100616000396000f3fe608060405234801561001057600080fd5b50600436106101005760003560e01c80639000b3d611610097578063dabd2c8011610066578063dabd2c80146102b9578063dbd30262146102e9578063f2c298be1461031b578063f851a4401461033757610100565b80639000b3d61461024957806390c7c49c14610265578063b94f550c14610281578063ca2dfd0a1461029d57610100565b806338a7543e116100d357806338a7543e146101b157806347bc7093146101e15780636c824487146101fd57806375829def1461022d57610100565b8063163f75221461010557806320694db014610135578063209c7ad1146101515780632f4b5ad314610181575b600080fd5b61011f600480360381019061011a9190611653565b610355565b60405161012c9190611cee565b60405180910390f35b61014f600480360381019061014a9190611653565b6103ab565b005b61016b6004803603810190610166919061167c565b610523565b6040516101789190611cee565b60405180910390f35b61019b6004803603810190610196919061167c565b6106b9565b6040516101a89190611f19565b60405180910390f35b6101cb60048036038101906101c69190611653565b610832565b6040516101d89190611cee565b60405180910390f35b6101fb60048036038101906101f69190611653565b610852565b005b61021760048036038101906102129190611653565b61093d565b6040516102249190611cee565b60405180910390f35b61024760048036038101906102429190611653565b61095d565b005b610263600480360381019061025e9190611653565b610aa1565b005b61027f600480360381019061027a919061167c565b610c19565b005b61029b6004803603810190610296919061167c565b610eb2565b005b6102b760048036038101906102b29190611653565b6110be565b005b6102d360048036038101906102ce9190611653565b6111a9565b6040516102e09190611d09565b60405180910390f35b61030360048036038101906102fe919061167c565b611249565b60405161031293929190611d5b565b60405180910390f35b610335600480360381019061033091906116d0565b61134b565b005b61033f6114d4565b60405161034c9190611cd3565b60405180910390f35b6000600260008373ffffffffffffffffffffffffffffffffffffffff1673ffffffffffffffffffffffffffffffffffffffff16815260200190815260200160002060009054906101000a900460ff169050919050565b600360009054906101000a900473ffffffffffffffffffffffffffffffffffffffff1673ffffffffffffffffffffffffffffffffffffffff163373ffffffffffffffffffffffffffffffffffffffff161461043b576040517f08c379a000000000000000000000000000000000000000000000000000000000815260040161043290611e39565b60405180910390fd5b600460008273ffffffffffffffffffffffffffffffffffffffff1673ffffffffffffffffffffffffffffffffffffffff16815260200190815260200160002060009054906101000a900460ff16156104c8576040517f08c379a00000000000000000000000000000000000000000000000000000000081526004016104bf90611e79565b60405180910390fd5b6001600460008373ffffffffffffffffffffffffffffffffffffffff1673ffffffffffffffffffffffffffffffffffffffff16815260200190815260200160002060006101000a81548160ff02191690831515021790555050565b6000600560003373ffffffffffffffffffffffffffffffffffffffff1673ffffffffffffffffffffffffffffffffffffffff16815260200190815260200160002060009054906101000a900460ff166105b1576040517f08c379a00000000000000000000000000000000000000000000000000000000081526004016105a890611df9565b60405180910390fd5b6000600160008573ffffffffffffffffffffffffffffffffffffffff1673ffffffffffffffffffffffffffffffffffffffff168152602001908152602001600020836040516106009190611cbc565b9081526020016040518091039020905060008060008673ffffffffffffffffffffffffffffffffffffffff1673ffffffffffffffffffffffffffffffffffffffff168152602001908152602001600020805461065b90612054565b9050141561069e576040517f08c379a000000000000000000000000000000000000000000000000000000000815260040161069590611eb9565b60405180910390fd5b8060010160149054906101000a900460ff1691505092915050565b6106c16114fa565b600160008473ffffffffffffffffffffffffffffffffffffffff1673ffffffffffffffffffffffffffffffffffffffff1681526020019081526020016000208260405161070e9190611cbc565b908152602001604051809103902060405180606001604052908160008201805461073790612054565b80601f016020809104026020016040519081016040528092919081815260200182805461076390612054565b80156107b05780601f10610785576101008083540402835291602001916107b0565b820191906000526020600020905b81548152906001019060200180831161079357829003601f168201915b505050505081526020016001820160009054906101000a900473ffffffffffffffffffffffffffffffffffffffff1673ffffffffffffffffffffffffffffffffffffffff1673ffffffffffffffffffffffffffffffffffffffff1681526020016001820160149054906101000a900460ff161515151581525050905092915050565b60046020528060005260406000206000915054906101000a900460ff1681565b600360009054906101000a900473ffffffffffffffffffffffffffffffffffffffff1673ffffffffffffffffffffffffffffffffffffffff163373ffffffffffffffffffffffffffffffffffffffff16146108e2576040517f08c379a00000000000000000000000000000000000000000000000000000000081526004016108d990611e39565b60405180910390fd5b6000600460008373ffffffffffffffffffffffffffffffffffffffff1673ffffffffffffffffffffffffffffffffffffffff16815260200190815260200160002060006101000a81548160ff02191690831515021790555050565b60056020528060005260406000206000915054906101000a900460ff1681565b600360009054906101000a900473ffffffffffffffffffffffffffffffffffffffff1673ffffffffffffffffffffffffffffffffffffffff163373ffffffffffffffffffffffffffffffffffffffff16146109ed576040517f08c379a00000000000000000000000000000000000000000000000000000000081526004016109e490611e39565b60405180910390fd5b600073ffffffffffffffffffffffffffffffffffffffff168173ffffffffffffffffffffffffffffffffffffffff161415610a5d576040517f08c379a0000000000000000000000000000000000000000000000000000000008152600401610a5490611e99565b60405180910390fd5b80600360006101000a81548173ffffffffffffffffffffffffffffffffffffffff021916908373ffffffffffffffffffffffffffffffffffffffff16021790555050565b600360009054906101000a900473ffffffffffffffffffffffffffffffffffffffff1673ffffffffffffffffffffffffffffffffffffffff163373ffffffffffffffffffffffffffffffffffffffff1614610b31576040517f08c379a0000000000000000000000000000000000000000000000000000000008152600401610b2890611e39565b60405180910390fd5b600560008273ffffffffffffffffffffffffffffffffffffffff1673ffffffffffffffffffffffffffffffffffffffff16815260200190815260200160002060009054906101000a900460ff1615610bbe576040517f08c379a0000000000000000000000000000000000000000000000000000000008152600401610bb590611e19565b60405180910390fd5b6001600560008373ffffffffffffffffffffffffffffffffffffffff1673ffffffffffffffffffffffffffffffffffffffff16815260200190815260200160002060006101000a81548160ff02191690831515021790555050565b600460003373ffffffffffffffffffffffffffffffffffffffff1673ffffffffffffffffffffffffffffffffffffffff16815260200190815260200160002060009054906101000a900460ff16610ca5576040517f08c379a0000000000000000000000000000000000000000000000000000000008152600401610c9c90611d99565b60405180910390fd5b60008060008473ffffffffffffffffffffffffffffffffffffffff1673ffffffffffffffffffffffffffffffffffffffff1681526020019081526020016000208054610cf090612054565b90501415610d33576040517f08c379a0000000000000000000000000000000000000000000000000000000008152600401610d2a90611ef9565b60405180910390fd5b6000600160008473ffffffffffffffffffffffffffffffffffffffff1673ffffffffffffffffffffffffffffffffffffffff16815260200190815260200160002082604051610d829190611cbc565b908152602001604051809103902090508060010160149054906101000a900460ff1615610de4576040517f08c379a0000000000000000000000000000000000000000000000000000000008152600401610ddb90611dd9565b60405180910390fd5b81816000019080519060200190610dfc929190611533565b50338160010160006101000a81548173ffffffffffffffffffffffffffffffffffffffff021916908373ffffffffffffffffffffffffffffffffffffffff16021790555060018160010160146101000a81548160ff0219169083151502179055508273ffffffffffffffffffffffffffffffffffffffff167fedf9ccba95eb9797906268b5ee6306453c4ca722fd09e14c50a7b15b77d3d9b28333604051610ea5929190611d2b565b60405180910390a2505050565b6000600160008473ffffffffffffffffffffffffffffffffffffffff1673ffffffffffffffffffffffffffffffffffffffff16815260200190815260200160002082604051610f019190611cbc565b908152602001604051809103902090508060010160149054906101000a900460ff16610f62576040517f08c379a0000000000000000000000000000000000000000000000000000000008152600401610f5990611db9565b60405180910390fd5b3373ffffffffffffffffffffffffffffffffffffffff168160010160009054906101000a900473ffffffffffffffffffffffffffffffffffffffff1673ffffffffffffffffffffffffffffffffffffffff16148061100d5750600360009054906101000a900473ffffffffffffffffffffffffffffffffffffffff1673ffffffffffffffffffffffffffffffffffffffff163373ffffffffffffffffffffffffffffffffffffffff16145b61104c576040517f08c379a000000000000000000000000000000000000000000000000000000000815260040161104390611ed9565b60405180910390fd5b60008160010160146101000a81548160ff0219169083151502179055508273ffffffffffffffffffffffffffffffffffffffff167f37744e4bae920c1209529dc1fea9913ec51dde38cc8adb311c29711d300ca99383336040516110b1929190611d2b565b60405180910390a2505050565b600360009054906101000a900473ffffffffffffffffffffffffffffffffffffffff1673ffffffffffffffffffffffffffffffffffffffff163373ffffffffffffffffffffffffffffffffffffffff161461114e576040517f08c379a000000000000000000000000000000000000000000000000000000000815260040161114590611e39565b60405180910390fd5b6000600560008373ffffffffffffffffffffffffffffffffffffffff1673ffffffffffffffffffffffffffffffffffffffff16815260200190815260200160002060006101000a81548160ff02191690831515021790555050565b600060205280600052604060002060009150905080546111c890612054565b80601f01602080910402602001604051908101604052809291908181526020018280546111f490612054565b80156112415780601f1061121657610100808354040283529160200191611241565b820191906000526020600020905b81548152906001019060200180831161122457829003601f168201915b505050505081565b6001602052816000526040600020818051602081018201805184825260208301602085012081835280955050505050506000915091505080600001805461128f90612054565b80601f01602080910402602001604051908101604052809291908181526020018280546112bb90612054565b80156113085780601f106112dd57610100808354040283529160200191611308565b820191906000526020600020905b8154815290600101906020018083116112eb57829003601f168201915b5050505050908060010160009054906101000a900473ffffffffffffffffffffffffffffffffffffffff16908060010160149054906101000a900460ff16905083565b600260003373ffffffffffffffffffffffffffffffffffffffff1673ffffffffffffffffffffffffffffffffffffffff16815260200190815260200160002060009054906101000a900460ff16156113d8576040517f08c379a00000000000000000000000000000000000000000000000000000000081526004016113cf90611e59565b60405180910390fd5b6001600260003373ffffffffffffffffffffffffffffffffffffffff1673ffffffffffffffffffffffffffffffffffffffff16815260200190815260200160002060006101000a81548160ff021916908315150217905550806000803373ffffffffffffffffffffffffffffffffffffffff1673ffffffffffffffffffffffffffffffffffffffff1681526020019081526020016000209080519060200190611482929190611533565b503373ffffffffffffffffffffffffffffffffffffffff167f48cac28ad4dc618e15f4c2dd5e97751182f166de97b25618318b2112aa951a2f826040516114c99190611d09565b60405180910390a250565b600360009054906101000a900473ffffffffffffffffffffffffffffffffffffffff1681565b604051806060016040528060608152602001600073ffffffffffffffffffffffffffffffffffffffff1681526020016000151581525090565b82805461153f90612054565b90600052602060002090601f01602090048101928261156157600085556115a8565b82601f1061157a57805160ff19168380011785556115a8565b828001600101855582156115a8579182015b828111156115a757825182559160200191906001019061158c565b5b5090506115b591906115b9565b5090565b5b808211156115d25760008160009055506001016115ba565b5090565b60006115e96115e484611f6c565b611f3b565b90508281526020810184848401111561160157600080fd5b61160c848285612012565b509392505050565b600081359050611623816120f5565b92915050565b600082601f83011261163a57600080fd5b813561164a8482602086016115d6565b91505092915050565b60006020828403121561166557600080fd5b600061167384828501611614565b91505092915050565b6000806040838503121561168f57600080fd5b600061169d85828601611614565b925050602083013567ffffffffffffffff8111156116ba57600080fd5b6116c685828601611629565b9150509250929050565b6000602082840312156116e257600080fd5b600082013567ffffffffffffffff8111156116fc57600080fd5b61170884828501611629565b91505092915050565b61171a81611fd4565b82525050565b61172981611fd4565b82525050565b61173881611fe6565b82525050565b61174781611fe6565b82525050565b600061175882611f9c565b6117628185611fa7565b9350611772818560208601612021565b61177b816120e4565b840191505092915050565b600061179182611f9c565b61179b8185611fb8565b93506117ab818560208601612021565b6117b4816120e4565b840191505092915050565b60006117ca82611f9c565b6117d48185611fc9565b93506117e4818560208601612021565b80840191505092915050565b60006117fd603683611fb8565b91507f4163636573732044656e6965643a204f6e6c7920616e2069737375657220636160008301527f6e20706572666f726d207468697320616374696f6e2e000000000000000000006020830152604082019050919050565b6000611863603b83611fb8565b91507f5265766f6b65204572726f723a2043726564656e7469616c20646f6573206e6f60008301527f74206578697374206f7220616c7265616479207265766f6b65642e00000000006020830152604082019050919050565b60006118c9602783611fb8565b91507f4973737565204572726f723a2043726564656e7469616c20616c72656164792060008301527f6578697374732e000000000000000000000000000000000000000000000000006020830152604082019050919050565b600061192f603783611fb8565b91507f4163636573732044656e6965643a204f6e6c792061207665726966696572206360008301527f616e20706572666f726d207468697320616374696f6e2e0000000000000000006020830152604082019050919050565b6000611995601883611fb8565b91507f566572696669657220616c7265616479206578697374732e00000000000000006000830152602082019050919050565b60006119d5603283611fb8565b91507f4163636573732044656e6965643a204f6e6c792061646d696e2063616e20706560008301527f72666f726d207468697320616374696f6e2e00000000000000000000000000006020830152604082019050919050565b6000611a3b601783611fb8565b91507f5573657220616c726561647920726567697374657265640000000000000000006000830152602082019050919050565b6000611a7b601683611fb8565b91507f49737375657220616c7265616479206578697374732e000000000000000000006000830152602082019050919050565b6000611abb602183611fb8565b91507f4e65772061646d696e20616464726573732063616e6e6f74206265207a65726f60008301527f2e000000000000000000000000000000000000000000000000000000000000006020830152604082019050919050565b6000611b21602883611fb8565b91507f566572696669636174696f6e204572726f723a2055736572206e6f742072656760008301527f697374657265642e0000000000000000000000000000000000000000000000006020830152604082019050919050565b6000611b87604283611fb8565b91507f5265766f6b65204572726f723a204f6e6c792074686520697373756572206f7260008301527f2061646d696e2063616e207265766f6b6520746869732063726564656e74696160208301527f6c2e0000000000000000000000000000000000000000000000000000000000006040830152606082019050919050565b6000611c13602183611fb8565b91507f4973737565204572726f723a2055736572206e6f74207265676973746572656460008301527f2e000000000000000000000000000000000000000000000000000000000000006020830152604082019050919050565b60006060830160008301518482036000860152611c89828261174d565b9150506020830151611c9e6020860182611711565b506040830151611cb1604086018261172f565b508091505092915050565b6000611cc882846117bf565b915081905092915050565b6000602082019050611ce86000830184611720565b92915050565b6000602082019050611d03600083018461173e565b92915050565b60006020820190508181036000830152611d238184611786565b905092915050565b60006040820190508181036000830152611d458185611786565b9050611d546020830184611720565b9392505050565b60006060820190508181036000830152611d758186611786565b9050611d846020830185611720565b611d91604083018461173e565b949350505050565b60006020820190508181036000830152611db2816117f0565b9050919050565b60006020820190508181036000830152611dd281611856565b9050919050565b60006020820190508181036000830152611df2816118bc565b9050919050565b60006020820190508181036000830152611e1281611922565b9050919050565b60006020820190508181036000830152611e3281611988565b9050919050565b60006020820190508181036000830152611e52816119c8565b9050919050565b60006020820190508181036000830152611e7281611a2e565b9050919050565b60006020820190508181036000830152611e9281611a6e565b9050919050565b60006020820190508181036000830152611eb281611aae565b9050919050565b60006020820190508181036000830152611ed281611b14565b9050919050565b60006020820190508181036000830152611ef281611b7a565b9050919050565b60006020820190508181036000830152611f1281611c06565b9050919050565b60006020820190508181036000830152611f338184611c6c565b905092915050565b6000604051905081810181811067ffffffffffffffff82111715611f6257611f616120b5565b5b8060405250919050565b600067ffffffffffffffff821115611f8757611f866120b5565b5b601f19601f8301169050602081019050919050565b600081519050919050565b600082825260208201905092915050565b600082825260208201905092915050565b600081905092915050565b6000611fdf82611ff2565b9050919050565b60008115159050919050565b600073ffffffffffffffffffffffffffffffffffffffff82169050919050565b82818337600083830152505050565b60005b8381101561203f578082015181840152602081019050612024565b8381111561204e576000848401525b50505050565b6000600282049050600182168061206c57607f821691505b602082108114156120805761207f612086565b5b50919050565b7f4e487b7100000000000000000000000000000000000000000000000000000000600052602260045260246000fd5b7f4e487b7100000000000000000000000000000000000000000000000000000000600052604160045260246000fd5b6000601f19601f8301169050919050565b6120fe81611fd4565b811461210957600080fd5b5056fea2646970667358221220c91d09ea835661ea48454a721664e2b60441a304530c9783154a5cb84d25daff64736f6c63430008000033",
  "immutableReferences": {},
  "source": "// SPDX-License-Identifier: MIT\r\npragma solidity ^0.8.0;\r\n\r\ncontract IdentityVerification {\r\n    // Struct for user credentials\r\n    struct Credential {\r\n        string dataHash;\r\n        address issuer;\r\n        bool valid;\r\n    }\r\n\r\n    // Mappings\r\n    mapping(address => string) public userRecords; // User data mapping\r\n    mapping(address => mapping(string => Credential)) public credentials; // User credentials mapping\r\n    mapping(address => bool) private registeredUsers;\r\n\r\n    // Role-based access control\r\n    address public admin;\r\n    mapping(address => bool) public issuers;\r\n    mapping(address => bool) public verifiers;\r\n\r\n    // Events\r\n    event UserRegistered(address indexed user, string hashedData);\r\n    event CredentialIssued(address indexed user, string dataHash, address issuer);\r\n    event CredentialRevoked(address indexed user, string dataHash, address issuer);\r\n\r\n    // Constructor to set the admin\r\n    constructor() {\r\n        admin = msg.sender;\r\n    }\r\n\r\n    // Modifiers for access control\r\n    modifier onlyAdmin() {\r\n        require(msg.sender == admin, \"Access Denied: Only admin can perform this action.\");\r\n        _;\r\n    }\r\n\r\n    modifier onlyIssuer() {\r\n        require(issuers[msg.sender], \"Access Denied: Only an issuer can perform this action.\");\r\n        _;\r\n    }\r\n\r\n    modifier onlyVerifier() {\r\n        require(verifiers[msg.sender], \"Access Denied: Only a verifier can perform this action.\");\r\n        _;\r\n    }\r\n\r\n    // Admin functions\r\n    function addIssuer(address issuer) public onlyAdmin {\r\n        require(!issuers[issuer], \"Issuer already exists.\");\r\n        issuers[issuer] = true;\r\n    }\r\n\r\n    function addVerifier(address verifier) public onlyAdmin {\r\n        require(!verifiers[verifier], \"Verifier already exists.\");\r\n        verifiers[verifier] = true;\r\n    }\r\n\r\n    function removeIssuer(address issuer) public onlyAdmin {\r\n        issuers[issuer] = false;\r\n    }\r\n\r\n    function removeVerifier(address verifier) public onlyAdmin {\r\n        verifiers[verifier] = false;\r\n    }\r\n\r\n    // Admin function to transfer admin role\r\n    function transferAdmin(address newAdmin) public onlyAdmin {\r\n        require(newAdmin != address(0), \"New admin address cannot be zero.\");\r\n        admin = newAdmin;\r\n    }\r\n\r\n    // User registration\r\n    function register(string memory hashedData) public {\r\n    require(!registeredUsers[msg.sender], \"User already registered\");\r\n    registeredUsers[msg.sender] = true;\r\n    userRecords[msg.sender] = hashedData;\r\n    emit UserRegistered(msg.sender, hashedData);\r\n}\r\n\r\n\r\n    // Retrieve registration status\r\n    function isUserRegistered(address user) public view returns (bool) {\r\n        return registeredUsers[user];\r\n    }\r\n\r\n    // Issuer functions\r\n    function issueCredential(address user, string memory dataHash) public onlyIssuer {\r\n        require(bytes(userRecords[user]).length != 0, \"Issue Error: User not registered.\");\r\n        Credential storage credential = credentials[user][dataHash];\r\n        require(!credential.valid, \"Issue Error: Credential already exists.\");\r\n        credential.dataHash = dataHash;\r\n        credential.issuer = msg.sender;\r\n        credential.valid = true;\r\n        emit CredentialIssued(user, dataHash, msg.sender);\r\n    }\r\n\r\n    // Revoke credential\r\n    function revokeCredential(address user, string memory dataHash) public {\r\n        Credential storage credential = credentials[user][dataHash];\r\n        require(credential.valid, \"Revoke Error: Credential does not exist or already revoked.\");\r\n        require(\r\n            credential.issuer == msg.sender || msg.sender == admin,\r\n            \"Revoke Error: Only the issuer or admin can revoke this credential.\"\r\n        );\r\n        credential.valid = false;\r\n        emit CredentialRevoked(user, dataHash, msg.sender);\r\n    }\r\n\r\n    // Verifier function to verify credential\r\n    function verifyCredential(address user, string memory dataHash) public view onlyVerifier returns (bool) {\r\n        Credential storage credential = credentials[user][dataHash];\r\n        require(bytes(userRecords[user]).length != 0, \"Verification Error: User not registered.\");\r\n        return credential.valid;\r\n    }\r\n\r\n    // Retrieve user credentials\r\n    function getCredential(address user, string memory dataHash) public view returns (Credential memory) {\r\n        return credentials[user][dataHash];\r\n    }\r\n}\r\n",
  "sourcePath": "C:\\Users\\nikhi\\Documents\\VScode_projects\\Crypto_project\\blockchain\\contracts\\IdentityVerification.sol",
  "compiler": {
    "name": "solc",
    "version": "0.8.0+commit.c7dfd78e.Emscripten.clang"
  },
  "schemaVersion": "3.4.16",
  "updatedAt": "2024-11-26T19:41:18.947Z",
  "networkType": "ethereum",
  "devdoc": {
    "kind": "dev",
    "methods": {},
    "version": 1
  },
  "userdoc": {
    "kind": "user",
    "methods": {},
    "version": 1
  }
}