{
  "contractName": "IdentityVerification",
  "abi": [
    {
      "inputs": [],
      "stateMutability": "nonpayable",
      "type": "constructor"
    },
    {
      "anonymous": false,
      "inputs": [
        {
          "indexed": true,
          "internalType": "address",
          "name": "user",
          "type": "address"
        },
        {
          "indexed": false,
          "internalType": "string",
          "name": "dataHash",
          "type": "string"
        },
        {
          "indexed": false,
          "internalType": "address",
          "name": "issuer",
          "type": "address"
        }
      ],
      "name": "CredentialIssued",
      "type": "event"
    },
    {
      "anonymous": false,
      "inputs": [
        {
          "indexed": true,
          "internalType": "address",
          "name": "user",
          "type": "address"
        },
        {
          "indexed": false,
          "internalType": "string",
          "name": "dataHash",
          "type": "string"
        },
        {
          "indexed": false,
          "internalType": "address",
          "name": "issuer",
          "type": "address"
        }
      ],
      "name": "CredentialRevoked",
      "type": "event"
    },
    {
      "anonymous": false,
      "inputs": [
        {
          "indexed": true,
          "internalType": "address",
          "name": "user",
          "type": "address"
        },
        {
          "indexed": false,
          "internalType": "string",
          "name": "hashedData",
          "type": "string"
        }
      ],
      "name": "UserRegistered",
      "type": "event"
    },
    {
      "inputs": [],
      "name": "admin",
      "outputs": [
        {
          "internalType": "address",
          "name": "",
          "type": "address"
        }
      ],
      "stateMutability": "view",
      "type": "function",
      "constant": true
    },
    {
      "inputs": [
        {
          "internalType": "address",
          "name": "",
          "type": "address"
        },
        {
          "internalType": "string",
          "name": "",
          "type": "string"
        }
      ],
      "name": "credentials",
      "outputs": [
        {
          "internalType": "string",
          "name": "dataHash",
          "type": "string"
        },
        {
          "internalType": "address",
          "name": "issuer",
          "type": "address"
        },
        {
          "internalType": "bool",
          "name": "valid",
          "type": "bool"
        }
      ],
      "stateMutability": "view",
      "type": "function",
      "constant": true
    },
    {
      "inputs": [
        {
          "internalType": "address",
          "name": "",
          "type": "address"
        }
      ],
      "name": "issuers",
      "outputs": [
        {
          "internalType": "bool",
          "name": "",
          "type": "bool"
        }
      ],
      "stateMutability": "view",
      "type": "function",
      "constant": true
    },
    {
      "inputs": [
        {
          "internalType": "address",
          "name": "",
          "type": "address"
        }
      ],
      "name": "userRecords",
      "outputs": [
        {
          "internalType": "string",
          "name": "",
          "type": "string"
        }
      ],
      "stateMutability": "view",
      "type": "function",
      "constant": true
    },
    {
      "inputs": [
        {
          "internalType": "address",
          "name": "",
          "type": "address"
        }
      ],
      "name": "verifiers",
      "outputs": [
        {
          "internalType": "bool",
          "name": "",
          "type": "bool"
        }
      ],
      "stateMutability": "view",
      "type": "function",
      "constant": true
    },
    {
      "inputs": [
        {
          "internalType": "address",
          "name": "issuer",
          "type": "address"
        }
      ],
      "name": "addIssuer",
      "outputs": [],
      "stateMutability": "nonpayable",
      "type": "function"
    },
    {
      "inputs": [
        {
          "internalType": "address",
          "name": "verifier",
          "type": "address"
        }
      ],
      "name": "addVerifier",
      "outputs": [],
      "stateMutability": "nonpayable",
      "type": "function"
    },
    {
      "inputs": [
        {
          "internalType": "address",
          "name": "issuer",
          "type": "address"
        }
      ],
      "name": "removeIssuer",
      "outputs": [],
      "stateMutability": "nonpayable",
      "type": "function"
    },
    {
      "inputs": [
        {
          "internalType": "address",
          "name": "verifier",
          "type": "address"
        }
      ],
      "name": "removeVerifier",
      "outputs": [],
      "stateMutability": "nonpayable",
      "type": "function"
    },
    {
      "inputs": [
        {
          "internalType": "string",
          "name": "hashedData",
          "type": "string"
        }
      ],
      "name": "register",
      "outputs": [],
      "stateMutability": "nonpayable",
      "type": "function"
    },
    {
      "inputs": [
        {
          "internalType": "address",
          "name": "user",
          "type": "address"
        },
        {
          "internalType": "string",
          "name": "dataHash",
          "type": "string"
        }
      ],
      "name": "issueCredential",
      "outputs": [],
      "stateMutability": "nonpayable",
      "type": "function"
    },
    {
      "inputs": [
        {
          "internalType": "address",
          "name": "user",
          "type": "address"
        },
        {
          "internalType": "string",
          "name": "dataHash",
          "type": "string"
        }
      ],
      "name": "revokeCredential",
      "outputs": [],
      "stateMutability": "nonpayable",
      "type": "function"
    },
    {
      "inputs": [
        {
          "internalType": "address",
          "name": "user",
          "type": "address"
        },
        {
          "internalType": "string",
          "name": "dataHash",
          "type": "string"
        }
      ],
      "name": "verifyCredential",
      "outputs": [
        {
          "internalType": "bool",
          "name": "",
          "type": "bool"
        }
      ],
      "stateMutability": "view",
      "type": "function",
      "constant": true
    },
    {
      "inputs": [
        {
          "internalType": "address",
          "name": "newAdmin",
          "type": "address"
        }
      ],
      "name": "transferAdmin",
      "outputs": [],
      "stateMutability": "nonpayable",
      "type": "function"
    }
  ],
  "bytecode": "0x608060405234801561001057600080fd5b5033600260006101000a81548173ffffffffffffffffffffffffffffffffffffffff021916908373ffffffffffffffffffffffffffffffffffffffff160217905550611970806100616000396000f3fe608060405234801561001057600080fd5b50600436106100ea5760003560e01c806390c7c49c1161008c578063dabd2c8011610066578063dabd2c8014610243578063dbd3026214610273578063f2c298be146102a5578063f851a440146102c1576100ea565b806390c7c49c146101ef578063b94f550c1461020b578063ca2dfd0a14610227576100ea565b806347bc7093116100c857806347bc70931461016b5780636c8244871461018757806375829def146101b75780639000b3d6146101d3576100ea565b806320694db0146100ef578063209c7ad11461010b57806338a7543e1461013b575b600080fd5b61010960048036038101906101049190611199565b6102df565b005b610125600480360381019061012091906111c2565b6103ca565b60405161013291906115cf565b60405180910390f35b61015560048036038101906101509190611199565b6104d2565b60405161016291906115cf565b60405180910390f35b61018560048036038101906101809190611199565b6104f2565b005b6101a1600480360381019061019c9190611199565b6105dd565b6040516101ae91906115cf565b60405180910390f35b6101d160048036038101906101cc9190611199565b6105fd565b005b6101ed60048036038101906101e89190611199565b6106d1565b005b610209600480360381019061020491906111c2565b6107bc565b005b610225600480360381019061022091906111c2565b610a55565b005b610241600480360381019061023c9190611199565b610c95565b005b61025d60048036038101906102589190611199565b610d80565b60405161026a91906115ea565b60405180910390f35b61028d600480360381019061028891906111c2565b610e20565b60405161029c9392919061163c565b60405180910390f35b6102bf60048036038101906102ba9190611216565b610f22565b005b6102c9611053565b6040516102d691906115b4565b60405180910390f35b600260009054906101000a900473ffffffffffffffffffffffffffffffffffffffff1673ffffffffffffffffffffffffffffffffffffffff163373ffffffffffffffffffffffffffffffffffffffff161461036f576040517f08c379a00000000000000000000000000000000000000000000000000000000081526004016103669061175a565b60405180910390fd5b6001600360008373ffffffffffffffffffffffffffffffffffffffff1673ffffffffffffffffffffffffffffffffffffffff16815260200190815260200160002060006101000a81548160ff02191690831515021790555050565b6000600460003373ffffffffffffffffffffffffffffffffffffffff1673ffffffffffffffffffffffffffffffffffffffff16815260200190815260200160002060009054906101000a900460ff16610458576040517f08c379a000000000000000000000000000000000000000000000000000000000815260040161044f9061173a565b60405180910390fd5b6000600160008573ffffffffffffffffffffffffffffffffffffffff1673ffffffffffffffffffffffffffffffffffffffff168152602001908152602001600020836040516104a7919061159d565b908152602001604051809103902090508060010160149054906101000a900460ff1691505092915050565b60036020528060005260406000206000915054906101000a900460ff1681565b600260009054906101000a900473ffffffffffffffffffffffffffffffffffffffff1673ffffffffffffffffffffffffffffffffffffffff163373ffffffffffffffffffffffffffffffffffffffff1614610582576040517f08c379a00000000000000000000000000000000000000000000000000000000081526004016105799061175a565b60405180910390fd5b6000600360008373ffffffffffffffffffffffffffffffffffffffff1673ffffffffffffffffffffffffffffffffffffffff16815260200190815260200160002060006101000a81548160ff02191690831515021790555050565b60046020528060005260406000206000915054906101000a900460ff1681565b600260009054906101000a900473ffffffffffffffffffffffffffffffffffffffff1673ffffffffffffffffffffffffffffffffffffffff163373ffffffffffffffffffffffffffffffffffffffff161461068d576040517f08c379a00000000000000000000000000000000000000000000000000000000081526004016106849061175a565b60405180910390fd5b80600260006101000a81548173ffffffffffffffffffffffffffffffffffffffff021916908373ffffffffffffffffffffffffffffffffffffffff16021790555050565b600260009054906101000a900473ffffffffffffffffffffffffffffffffffffffff1673ffffffffffffffffffffffffffffffffffffffff163373ffffffffffffffffffffffffffffffffffffffff1614610761576040517f08c379a00000000000000000000000000000000000000000000000000000000081526004016107589061175a565b60405180910390fd5b6001600460008373ffffffffffffffffffffffffffffffffffffffff1673ffffffffffffffffffffffffffffffffffffffff16815260200190815260200160002060006101000a81548160ff02191690831515021790555050565b600360003373ffffffffffffffffffffffffffffffffffffffff1673ffffffffffffffffffffffffffffffffffffffff16815260200190815260200160002060009054906101000a900460ff16610848576040517f08c379a000000000000000000000000000000000000000000000000000000000815260040161083f9061167a565b60405180910390fd5b60008060008473ffffffffffffffffffffffffffffffffffffffff1673ffffffffffffffffffffffffffffffffffffffff168152602001908152602001600020805461089390611882565b905014156108d6576040517f08c379a00000000000000000000000000000000000000000000000000000000081526004016108cd906116ba565b60405180910390fd5b6000600160008473ffffffffffffffffffffffffffffffffffffffff1673ffffffffffffffffffffffffffffffffffffffff16815260200190815260200160002082604051610925919061159d565b908152602001604051809103902090508060010160149054906101000a900460ff1615610987576040517f08c379a000000000000000000000000000000000000000000000000000000000815260040161097e9061169a565b60405180910390fd5b8181600001908051906020019061099f929190611079565b50338160010160006101000a81548173ffffffffffffffffffffffffffffffffffffffff021916908373ffffffffffffffffffffffffffffffffffffffff16021790555060018160010160146101000a81548160ff0219169083151502179055508273ffffffffffffffffffffffffffffffffffffffff167fedf9ccba95eb9797906268b5ee6306453c4ca722fd09e14c50a7b15b77d3d9b28333604051610a4892919061160c565b60405180910390a2505050565b600360003373ffffffffffffffffffffffffffffffffffffffff1673ffffffffffffffffffffffffffffffffffffffff16815260200190815260200160002060009054906101000a900460ff16610ae1576040517f08c379a0000000000000000000000000000000000000000000000000000000008152600401610ad89061167a565b60405180910390fd5b6000600160008473ffffffffffffffffffffffffffffffffffffffff1673ffffffffffffffffffffffffffffffffffffffff16815260200190815260200160002082604051610b30919061159d565b908152602001604051809103902090508060010160149054906101000a900460ff16610b91576040517f08c379a0000000000000000000000000000000000000000000000000000000008152600401610b88906116fa565b60405180910390fd5b3373ffffffffffffffffffffffffffffffffffffffff168160010160009054906101000a900473ffffffffffffffffffffffffffffffffffffffff1673ffffffffffffffffffffffffffffffffffffffff1614610c23576040517f08c379a0000000000000000000000000000000000000000000000000000000008152600401610c1a906116da565b60405180910390fd5b60008160010160146101000a81548160ff0219169083151502179055508273ffffffffffffffffffffffffffffffffffffffff167f37744e4bae920c1209529dc1fea9913ec51dde38cc8adb311c29711d300ca9938333604051610c8892919061160c565b60405180910390a2505050565b600260009054906101000a900473ffffffffffffffffffffffffffffffffffffffff1673ffffffffffffffffffffffffffffffffffffffff163373ffffffffffffffffffffffffffffffffffffffff1614610d25576040517f08c379a0000000000000000000000000000000000000000000000000000000008152600401610d1c9061175a565b60405180910390fd5b6000600460008373ffffffffffffffffffffffffffffffffffffffff1673ffffffffffffffffffffffffffffffffffffffff16815260200190815260200160002060006101000a81548160ff02191690831515021790555050565b60006020528060005260406000206000915090508054610d9f90611882565b80601f0160208091040260200160405190810160405280929190818152602001828054610dcb90611882565b8015610e185780601f10610ded57610100808354040283529160200191610e18565b820191906000526020600020905b815481529060010190602001808311610dfb57829003601f168201915b505050505081565b60016020528160005260406000208180516020810182018051848252602083016020850120818352809550505050505060009150915050806000018054610e6690611882565b80601f0160208091040260200160405190810160405280929190818152602001828054610e9290611882565b8015610edf5780601f10610eb457610100808354040283529160200191610edf565b820191906000526020600020905b815481529060010190602001808311610ec257829003601f168201915b5050505050908060010160009054906101000a900473ffffffffffffffffffffffffffffffffffffffff16908060010160149054906101000a900460ff16905083565b60008060003373ffffffffffffffffffffffffffffffffffffffff1673ffffffffffffffffffffffffffffffffffffffff1681526020019081526020016000208054610f6d90611882565b905014610faf576040517f08c379a0000000000000000000000000000000000000000000000000000000008152600401610fa69061171a565b60405180910390fd5b806000803373ffffffffffffffffffffffffffffffffffffffff1673ffffffffffffffffffffffffffffffffffffffff1681526020019081526020016000209080519060200190611001929190611079565b503373ffffffffffffffffffffffffffffffffffffffff167f48cac28ad4dc618e15f4c2dd5e97751182f166de97b25618318b2112aa951a2f8260405161104891906115ea565b60405180910390a250565b600260009054906101000a900473ffffffffffffffffffffffffffffffffffffffff1681565b82805461108590611882565b90600052602060002090601f0160209004810192826110a757600085556110ee565b82601f106110c057805160ff19168380011785556110ee565b828001600101855582156110ee579182015b828111156110ed5782518255916020019190600101906110d2565b5b5090506110fb91906110ff565b5090565b5b80821115611118576000816000905550600101611100565b5090565b600061112f61112a846117ab565b61177a565b90508281526020810184848401111561114757600080fd5b611152848285611840565b509392505050565b60008135905061116981611923565b92915050565b600082601f83011261118057600080fd5b813561119084826020860161111c565b91505092915050565b6000602082840312156111ab57600080fd5b60006111b98482850161115a565b91505092915050565b600080604083850312156111d557600080fd5b60006111e38582860161115a565b925050602083013567ffffffffffffffff81111561120057600080fd5b61120c8582860161116f565b9150509250929050565b60006020828403121561122857600080fd5b600082013567ffffffffffffffff81111561124257600080fd5b61124e8482850161116f565b91505092915050565b61126081611802565b82525050565b61126f81611814565b82525050565b6000611280826117db565b61128a81856117e6565b935061129a81856020860161184f565b6112a381611912565b840191505092915050565b60006112b9826117db565b6112c381856117f7565b93506112d381856020860161184f565b80840191505092915050565b60006112ec6026836117e6565b91507f4f6e6c7920616e206973737565722063616e20706572666f726d20746869732060008301527f616374696f6e00000000000000000000000000000000000000000000000000006020830152604082019050919050565b60006113526019836117e6565b91507f43726564656e7469616c20616c726561647920657869737473000000000000006000830152602082019050919050565b60006113926013836117e6565b91507f55736572206e6f742072656769737465726564000000000000000000000000006000830152602082019050919050565b60006113d2602a836117e6565b91507f4f6e6c7920746865206973737565722063616e207265766f6b6520746869732060008301527f63726564656e7469616c000000000000000000000000000000000000000000006020830152604082019050919050565b6000611438602c836117e6565b91507f43726564656e7469616c20646f6573206e6f74206578697374206f7220616c7260008301527f65616479207265766f6b656400000000000000000000000000000000000000006020830152604082019050919050565b600061149e6017836117e6565b91507f5573657220616c726561647920726567697374657265640000000000000000006000830152602082019050919050565b60006114de6027836117e6565b91507f4f6e6c7920612076657269666965722063616e20706572666f726d207468697360008301527f20616374696f6e000000000000000000000000000000000000000000000000006020830152604082019050919050565b60006115446022836117e6565b91507f4f6e6c792061646d696e2063616e20706572666f726d2074686973206163746960008301527f6f6e0000000000000000000000000000000000000000000000000000000000006020830152604082019050919050565b60006115a982846112ae565b915081905092915050565b60006020820190506115c96000830184611257565b92915050565b60006020820190506115e46000830184611266565b92915050565b600060208201905081810360008301526116048184611275565b905092915050565b600060408201905081810360008301526116268185611275565b90506116356020830184611257565b9392505050565b600060608201905081810360008301526116568186611275565b90506116656020830185611257565b6116726040830184611266565b949350505050565b60006020820190508181036000830152611693816112df565b9050919050565b600060208201905081810360008301526116b381611345565b9050919050565b600060208201905081810360008301526116d381611385565b9050919050565b600060208201905081810360008301526116f3816113c5565b9050919050565b600060208201905081810360008301526117138161142b565b9050919050565b6000602082019050818103600083015261173381611491565b9050919050565b60006020820190508181036000830152611753816114d1565b9050919050565b6000602082019050818103600083015261177381611537565b9050919050565b6000604051905081810181811067ffffffffffffffff821117156117a1576117a06118e3565b5b8060405250919050565b600067ffffffffffffffff8211156117c6576117c56118e3565b5b601f19601f8301169050602081019050919050565b600081519050919050565b600082825260208201905092915050565b600081905092915050565b600061180d82611820565b9050919050565b60008115159050919050565b600073ffffffffffffffffffffffffffffffffffffffff82169050919050565b82818337600083830152505050565b60005b8381101561186d578082015181840152602081019050611852565b8381111561187c576000848401525b50505050565b6000600282049050600182168061189a57607f821691505b602082108114156118ae576118ad6118b4565b5b50919050565b7f4e487b7100000000000000000000000000000000000000000000000000000000600052602260045260246000fd5b7f4e487b7100000000000000000000000000000000000000000000000000000000600052604160045260246000fd5b6000601f19601f8301169050919050565b61192c81611802565b811461193757600080fd5b5056fea2646970667358221220ebe7a394b4e5f31ca0f4c9fed3220a40cea2f33d516d320c5e609d6552e5150764736f6c63430008000033",
  "immutableReferences": {},
  "source": "// SPDX-License-Identifier: MIT\r\npragma solidity ^0.8.0;\r\n\r\ncontract IdentityVerification {\r\n    // Struct for user credentials\r\n    struct Credential {\r\n        string dataHash;\r\n        address issuer;\r\n        bool valid;\r\n    }\r\n\r\n    // Mappings\r\n    mapping(address => string) public userRecords; // User data mapping\r\n    mapping(address => mapping(string => Credential)) public credentials; // User credentials mapping\r\n\r\n    // Role-based access control\r\n    address public admin;\r\n    mapping(address => bool) public issuers;\r\n    mapping(address => bool) public verifiers;\r\n\r\n    // Events\r\n    event UserRegistered(address indexed user, string hashedData);\r\n    event CredentialIssued(address indexed user, string dataHash, address issuer);\r\n    event CredentialRevoked(address indexed user, string dataHash, address issuer);\r\n\r\n    // Constructor to set the admin\r\n    constructor() {\r\n        admin = msg.sender;\r\n    }\r\n\r\n    // Modifiers for access control\r\n    modifier onlyAdmin() {\r\n        require(msg.sender == admin, \"Only admin can perform this action\");\r\n        _;\r\n    }\r\n\r\n    modifier onlyIssuer() {\r\n        require(issuers[msg.sender], \"Only an issuer can perform this action\");\r\n        _;\r\n    }\r\n\r\n    modifier onlyVerifier() {\r\n        require(verifiers[msg.sender], \"Only a verifier can perform this action\");\r\n        _;\r\n    }\r\n\r\n    // Admin functions\r\n    function addIssuer(address issuer) public onlyAdmin {\r\n        issuers[issuer] = true;\r\n    }\r\n\r\n    function addVerifier(address verifier) public onlyAdmin {\r\n        verifiers[verifier] = true;\r\n    }\r\n\r\n    function removeIssuer(address issuer) public onlyAdmin {\r\n        issuers[issuer] = false;\r\n    }\r\n\r\n    function removeVerifier(address verifier) public onlyAdmin {\r\n        verifiers[verifier] = false;\r\n    }\r\n\r\n    // User registration\r\n    function register(string memory hashedData) public {\r\n        require(bytes(userRecords[msg.sender]).length == 0, \"User already registered\");\r\n        userRecords[msg.sender] = hashedData;\r\n        emit UserRegistered(msg.sender, hashedData);\r\n    }\r\n\r\n    // Issuer functions\r\n    function issueCredential(address user, string memory dataHash) public onlyIssuer {\r\n        require(bytes(userRecords[user]).length != 0, \"User not registered\");\r\n        Credential storage credential = credentials[user][dataHash];\r\n        require(!credential.valid, \"Credential already exists\");\r\n        credential.dataHash = dataHash;\r\n        credential.issuer = msg.sender;\r\n        credential.valid = true;\r\n        emit CredentialIssued(user, dataHash, msg.sender);\r\n    }\r\n\r\n    // Revoke credential\r\n    function revokeCredential(address user, string memory dataHash) public onlyIssuer {\r\n        Credential storage credential = credentials[user][dataHash];\r\n        require(credential.valid, \"Credential does not exist or already revoked\");\r\n        require(credential.issuer == msg.sender, \"Only the issuer can revoke this credential\");\r\n        credential.valid = false;\r\n        emit CredentialRevoked(user, dataHash, msg.sender);\r\n    }\r\n\r\n    // Verifier function to verify credential\r\n    function verifyCredential(address user, string memory dataHash) public view onlyVerifier returns (bool) {\r\n        Credential storage credential = credentials[user][dataHash];\r\n        return credential.valid;\r\n    }\r\n\r\n    // Admin function to transfer admin role\r\n    function transferAdmin(address newAdmin) public onlyAdmin {\r\n        admin = newAdmin;\r\n    }\r\n}",
  "sourcePath": "C:\\Users\\nikhi\\Documents\\VScode_projects\\Crypto_project\\blockchain\\contracts\\IdentityVerification.sol",
  "compiler": {
    "name": "solc",
    "version": "0.8.0+commit.c7dfd78e.Emscripten.clang"
  },
  "schemaVersion": "3.4.16",
  "updatedAt": "2024-11-24T10:11:44.423Z",
  "networkType": "ethereum",
  "devdoc": {
    "kind": "dev",
    "methods": {},
    "version": 1
  },
  "userdoc": {
    "kind": "user",
    "methods": {},
    "version": 1
  }
}